:100000000C9458000C9480000C9480000C94800098
:100010000C9480000C9480000C9480000C94800060
:100020000C9480000C9480000C9480000C94450388
:100030000C9480000C9480000C9480000C94800040
:100040000C94A3020C9480000C9413030C94ED0206
:100050000C9480000C9480000C9480000C94800020
:100060000C9480000C948000000000002500280003
:100070002B00040404040404040402020202020229
:10008000030303030303010204081020408001025C
:1000900004081020010204081020000000080002DB
:1000A00001000003040700000000000000008C04B1
:1000B00011241FBECFEFD8E0DEBFCDBF11E0A0E01E
:1000C000B1E0E0EDF9E002C005900D92A831B10772
:1000D000D9F721E0A8E1B1E001C01D92AB3EB20723
:1000E000E1F710E0C8E5D0E004C02197FE010E94CE
:1000F000DB04C735D107C9F70E94A9030C94E604B5
:100100000C94000090E0FC01E656FF4F3491FC0196
:10011000EA57FF4F2491FC01EE58FF4FE491EE2384
:1001200009F43BC0332339F1333091F038F43130E6
:10013000A9F0323001F584B58F7D12C0373091F0CF
:100140003830A1F03430B9F4809180008F7D03C045
:10015000809180008F77809380000DC084B58F7769
:1001600084BD09C08091B0008F7703C08091B0003A
:100170008F7D8093B000F0E0EE0FFF1FE859FF4F36
:10018000A591B4918FB7F894EC91611103C02095BB
:100190002E2301C02E2B2C938FBF08958E3008F094
:1001A0008E508770806480937C0080917A00806498
:1001B00080937A0080917A0086FDFCCF8091780050
:1001C0002091790090E0922B08953FB7F8948091A8
:1001D0004A0190914B01A0914C01B0914D0126B57F
:1001E000A89B05C02F3F19F00196A11DB11D3FBF6F
:1001F000BA2FA92F982F8827820F911DA11DB11DFD
:10020000BC01CD0142E0660F771F881F991F4A95F8
:10021000D1F70895CF92DF92EF92FF920F931F9341
:10022000CF93DF936C017A018B01C0E0D0E0CE1553
:10023000DF0589F0D8016D918D01D601ED91FC911A
:100240000190F081E02DC6010995892B11F47E0102
:1002500002C02196ECCFC701DF91CF911F910F9182
:10026000FF90EF90DF90CF900895089580E090E0A8
:100270000895FC01538D448D252F30E0842F90E0AC
:10028000821B930B541710F0CF9608950197089591
:10029000FC01918D828D981761F0828DDF01A80F8E
:1002A000B11D5D968C91928D9F5F9F73928F90E0B0
:1002B00008958FEF9FEF0895FC01918D828D98171F
:1002C00031F0828DE80FF11D858D90E008958FEF5C
:1002D0009FEF0895FC01918D228D892F90E0805C25
:1002E0009F4F821B91098F73992708958EE491E0A7
:1002F0000E946A0121E0892B09F420E0822F0895F1
:10030000FC01848DDF01A80FB11DA35ABF4F2C91B2
:10031000848D90E001968F739927848FA689B78981
:100320002C93A089B1898C9180648C93938D848D5A
:10033000981306C00288F389E02D80818F7D808329
:100340000895EF92FF920F931F93CF93DF93EC01E9
:1003500081E0888F9B8D8C8D981305C0E889F98981
:10036000808185FD24C0F62E0B8D10E00F5F1F4F9E
:100370000F731127E02E8C8DE8120CC00FB607FC0E
:10038000FACFE889F989808185FFF5CFCE010E94F7
:100390008001F1CF8B8DFE01E80FF11DE35AFF4F75
:1003A000F0820B8FEA89FB898081806207C0EE8929
:1003B000FF896083E889F98980818064808381E096
:1003C00090E0DF91CF911F910F91FF90EF900895F2
:1003D000CF93DF93EC01888D8823C9F0EA89FB89EC
:1003E000808185FD05C0A889B9898C9186FD0FC0E3
:1003F0000FB607FCF5CF808185FFF2CFA889B989B8
:100400008C9185FFEDCFCE010E948001E7CFDF9177
:10041000CF91089580E090E0892B29F00E94760129
:1004200081110C9400000895009769F0FC0101907F
:100430000020E9F73197AF01481B590BBC018EE44E
:1004400091E00C940A0180E090E008958F929F92D1
:10045000AF92BF92CF92DF92EF92FF920F931F93D2
:10046000CF93DF93CDB7DEB7A1970FB6F894DEBF79
:100470000FBECDBF6C01990FEE08FF08F7FE31C02B
:10048000E0914E01F0914F010190F081E02D6DE27D
:100490008EE491E009958C0122273327A9012C19BC
:1004A0003D094E095F0919A2CE0181967C019AE0AF
:1004B000892E912CA12CB12CCA01B901A50194015E
:1004C0000E94B904605DF70162937F012115310537
:1004D0004105510589F7CF010E941402800F911F39
:1004E0001DC0A701960119A28E010F5D1F4F8AE062
:1004F000C82ED12CE12CF12CCA01B901A70196011B
:100500000E94B904605DF80162938F0121153105E5
:100510004105510589F7CF010E941402A1960FB63B
:10052000F894DEBF0FBECDBFDF91CF911F910F9129
:10053000FF90EF90DF90CF90BF90AF909F908F9003
:1005400008950E94E1041F920F920FB60F9211249A
:100550002F933F938F939F93AF93BF9380914601C7
:1005600090914701A0914801B09149013091450116
:1005700023E0230F2D3720F40196A11DB11D05C0E6
:1005800026E8230F0296A11DB11D209345018093FB
:10059000460190934701A0934801B093490180918F
:1005A0004A0190914B01A0914C01B0914D010196EF
:1005B000A11DB11D80934A0190934B01A0934C0162
:1005C000B0934D01BF91AF919F918F913F912F912A
:1005D0000F900FBE0F901F9018951F920F920FB69D
:1005E0000F9211242F933F934F935F936F937F93B9
:1005F0008F939F93AF93BF93EF93FF938EE491E01C
:100600000E948001FF91EF91BF91AF919F918F91D7
:100610007F916F915F914F913F912F910F900FBEFE
:100620000F901F9018951F920F920FB60F921124E2
:100630002F938F939F93EF93FF93E0915E01F0913F
:100640005F018081E0916401F091650182FD12C03B
:100650009081809167018F5F8F732091680182176D
:1006600051F0E0916701F0E0E25BFE4F958F8093DF
:10067000670101C08081FF91EF919F918F912F9130
:100680000F900FBE0F901F9018951F920F920FB6EC
:100690000F9211242F933F938F939F93EF93FF9388
:1006A00080913C0187FF05C0109285001092840064
:1006B00005C080913C0187FD80913C0180913C0107
:1006C0008F5F80933C0180913C0187FF20C0809127
:1006D0003C018C30E4F420918400309185008091BD
:1006E0003C01082E000C990BFC01EE0FFF1F8E0F32
:1006F0009F1FFC01E85EFE4F81819281820F931F54
:10070000909389008093880080913C0117C080916C
:10071000840090918500049680349C4918F480E40C
:100720009CE905C080918400909185000496909387
:100730008900809388008FEF80933C01FF91EF91B7
:100740009F918F913F912F910F900FBE0F901F900F
:100750001895789484B5826084BD84B5816084BD29
:1007600085B5826085BD85B5816085BD80916E004F
:10077000816080936E001092810080918100826080
:1007800080938100809181008160809381008091BD
:1007900080008160809380008091B10084608093AC
:1007A000B1008091B00081608093B00080917A00A8
:1007B000846080937A0080917A00826080937A00CE
:1007C00080917A00816080937A0080917A008068BD
:1007D00080937A001092C100E0915E01F0915F0178
:1007E00082E08083E0915A01F0915B011082E091F8
:1007F0005C01F0915D018FEC808310926601E091C5
:100800006201F091630186E08083E0916001F091E4
:100810006101808180618083E0916001F0916101DC
:10082000808188608083E0916001F0916101808126
:1008300080688083E0916001F091610180818F7D0B
:1008400080838EE00E94CE007C01909344018093CF
:1008500043018FE00E94CE009093420180934101BA
:1008600080E10E94CE009093400180933F0181E19E
:100870000E94CE0090933E0180933D01C7010E94EB
:10088000260282E191E00E94140280914101909140
:1008900042010E94260282E191E00E9414028091AE
:1008A0003F01909140010E94260282E191E00E9466
:1008B000140280913D0190913E010E94260284E144
:1008C00091E00E9414020E94E5004B015C0184E665
:1008D000C82ED12CE12CF12C0E94E500DC01CB01CB
:1008E00088199909AA09BB09883E9340A105B10559
:1008F00058F021E0C21AD108E108F10888EE880E0C
:1009000083E0981EA11CB11CC114D104E104F104C0
:1009100019F70E940A0295CFEEE4F1E013821282E9
:1009200088EE93E0A0E0B0E084839583A683B7834C
:1009300084E091E09183808385EC90E095878487C3
:1009400084EC90E09787868780EC90E0918B808B99
:1009500081EC90E0938B828B82EC90E0958B848B82
:1009600086EC90E0978B868B118E128E138E148EF0
:100970000895A1E21A2EAA1BBB1BFD010DC0AA1FE0
:10098000BB1FEE1FFF1FA217B307E407F50720F0F8
:10099000A21BB30BE40BF50B661F771F881F991F73
:1009A0001A9469F760957095809590959B01AC01BC
:1009B000BD01CF010895EE0FFF1F0590F491E02DCA
:1009C000099481E090E0F8940C94E604F894FFCF49
:1009D00000000000A1010A013901E8016A01480193
:0809E0005C0109000D0A000092
:00000001FF
