:100000000C945E000C9486000C9486000C94860080
:100010000C9486000C9486000C9486000C94860048
:100020000C9486000C9486000C9486000C94BB0201
:100030000C9486000C9486000C9486000C94860028
:100040000C9419020C9486000C9489020C9463029F
:100050000C9486000C9486000C9486000C94860008
:100060000C9486000C948600000000080002010039
:100070000003040700000000000000000000000072
:10008000250028002B0000000000240027002A0083
:10009000040404040404040402020202020203032E
:1000A0000303030301020408102040800102040836
:1000B00010200102040810201F03060411241FBE93
:1000C000CFEFD8E0DEBFCDBF11E0A0E0B1E0E8E9BE
:1000D000FAE002C005900D92A032B107D9F722E0F4
:1000E000A0E2B1E001C01D92A330B207E1F710E039
:1000F000CDE5D0E004C02197FE010E940704CC3575
:10010000D107C9F70E946F030C943F050C940000BF
:10011000089590E0FC01EC55FF4F2491FC01E0575D
:10012000FF4F8491882399F090E0880F991FFC017C
:10013000EA57FF4FA591B491FC01E458FF4F859118
:1001400094918FB7F894EC91E22BEC938FBF0895C4
:1001500090E0FC01E859FF4F3491FC01EC55FF4F52
:100160002491FC01E057FF4FE491EE2309F43BC0DA
:10017000332339F1333091F038F43130A9F0323093
:1001800001F584B58F7D12C0373091F03830A1F081
:100190003430B9F4809180008F7D03C0809180005D
:1001A0008F77809380000DC084B58F7784BD09C0A0
:1001B0008091B0008F7703C08091B0008F7D8093D5
:1001C000B000F0E0EE0FFF1FE458FF4FA591B4918F
:1001D0008FB7F894EC91611103C020952E2301C0D4
:1001E0002E2B2C938FBF08958E3008F08E50877081
:1001F000806480937C0080917A00806480937A0090
:1002000080917A0086FDFCCF809178002091790062
:1002100090E0922B0895CF92DF92EF92FF920F938E
:100220001F93CF93DF936C017A018B01C0E0D0E084
:10023000CE15DF0589F0D8016D918D01D601ED91C4
:10024000FC910190F081E02DC6010995892B11F4F4
:100250007E0102C02196ECCFC701DF91CF911F91A3
:100260000F91FF90EF90DF90CF900895089580E078
:1002700090E00895FC01538D448D252F30E0842FAC
:1002800090E0821B930B541710F0CF9608950197BE
:100290000895FC01918D828D981761F0828DDF01A8
:1002A000A80FB11D5D968C91928D9F5F9F73928F69
:1002B00090E008958FEF9FEF0895FC01918D828D5E
:1002C000981731F0828DE80FF11D858D90E008952B
:1002D0008FEF9FEF0895FC01918D228D892F90E083
:1002E000805C9F4F821B91098F739927089586E543
:1002F00091E00E946B0121E0892B09F420E0822F1C
:100300000895FC01848DDF01A80FB11DA35ABF4FD2
:100310002C91848D90E001968F739927848FA68904
:10032000B7892C93A089B1898C9180648C93938D2B
:10033000848D981306C00288F389E02D80818F7D1B
:1003400080830895EF92FF920F931F93CF93DF93D3
:10035000EC0181E0888F9B8D8C8D981305C0E88916
:10036000F989808185FD24C0F62E0B8D10E00F5F8A
:100370001F4F0F731127E02E8C8DE8120CC00FB6A3
:1003800007FCFACFE889F989808185FFF5CFCE0196
:100390000E948101F1CF8B8DFE01E80FF11DE35A20
:1003A000FF4FF0820B8FEA89FB898081806207C052
:1003B000EE89FF896083E889F98980818064808380
:1003C00081E090E0DF91CF911F910F91FF90EF902E
:1003D0000895CF93DF93EC01888D8823C9F0EA89D3
:1003E000FB89808185FD05C0A889B9898C9186FD2E
:1003F0000FC00FB607FCF5CF808185FFF2CFA8892B
:10040000B9898C9185FFEDCFCE010E948101E7CFA4
:10041000DF91CF91089580E090E0892B29F00E9430
:10042000770181110C94000008950E943A050C9404
:10043000A2041F920F920FB60F9211242F933F9395
:100440008F939F93AF93BF938091520190915301EB
:10045000A0915401B09155013091510123E0230F37
:100460002D3720F40196A11DB11D05C026E8230FEC
:100470000296A11DB11D20935101809352019093CA
:100480005301A0935401B093550180914D01909177
:100490004E01A0914F01B09150010196A11DB11DD7
:1004A00080934D0190934E01A0934F01B093500162
:1004B000BF91AF919F918F913F912F910F900FBE60
:1004C0000F901F9018951F920F920FB60F92112444
:1004D0002F933F934F935F936F937F938F939F934C
:1004E000AF93BF93EF93FF9386E591E00E94810164
:1004F000FF91EF91BF91AF919F918F917F916F91FC
:100500005F914F913F912F910F900FBE0F901F90D1
:1005100018951F920F920FB60F9211242F938F935D
:100520009F93EF93FF93E0916601F09167018081C3
:10053000E0916C01F0916D0182FD12C0908180917B
:100540006F018F5F8F7320917001821751F0E091DE
:100550006F01F0E0EA5AFE4F958F80936F0101C062
:100560008081FF91EF919F918F912F910F900FBEFE
:100570000F901F9018951F920F920FB60F92112493
:100580002F933F938F939F93EF93FF938091440119
:1005900087FF05C0109285001092840005C08091ED
:1005A000440187FD80914401809144018F5F8093D5
:1005B00044018091440187FF20C0809144018C3028
:1005C000E4F4209184003091850080914401082E4C
:1005D000000C990BFC01EE0FFF1F8E0F9F1FFC01FB
:1005E000E05EFE4F81819281820F931F909389007C
:1005F000809388008091440117C08091840090917D
:100600008500049680349C4918F480E49CE905C078
:100610008091840090918500049690938900809346
:1006200088008FEF80934401FF91EF919F918F910C
:100630003F912F910F900FBE0F901F9018950F9321
:100640001F93CF93DF93E6E5F1E01382128288EEE9
:1006500093E0A0E0B0E084839583A683B7838AE02B
:1006600091E09183808385EC90E09587848784EC8A
:1006700090E09787868780EC90E0918B808B81EC6F
:1006800090E0938B828B82EC90E0958B848B86EC50
:1006900090E0978B868B118E128E138E148EE9EF5D
:1006A000F1E00CE111E01183008381E090E093839D
:1006B0008283CFEFD0E0D583C4830E948900E3EF2B
:1006C000F1E01183008382E090E093838283D583FD
:1006D000C483DF91CF911F910F910C94890078947E
:1006E00084B5826084BD84B5816084BD85B5826037
:1006F00085BD85B5816085BD80916E0081608093E8
:100700006E00109281008091810082608093810050
:100710008091810081608093810080918000816060
:10072000809380008091B10084608093B1008091BB
:10073000B00081608093B00080917A0084608093E3
:100740007A0080917A00826080937A0080917A00AA
:10075000816080937A0080917A00806880937A002B
:100760001092C100E0916601F091670182E0808300
:10077000E0916201F09163011082E0916401F091D7
:1007800065018FEC808310926E01E0916A01F09117
:100790006B0186E08083E0916801F09169018081BE
:1007A00080618083E0916801F091690180818860B7
:1007B0008083E0916801F091690180818068808385
:1007C000E0916801F091690180818F7D80838EE0E6
:1007D0000E94F40090934C0180934B018FE00E94A3
:1007E000F40090934A018093490180E10E94F40053
:1007F000909348018093470181E10E94F400909317
:100800004601809345010E940B02E1CF0895EE0F4F
:10081000FF1F0590F491E02D0994CF93DF93823070
:10082000910510F482E090E0E0910102F091020263
:1008300020E030E0C0E0D0E0309711F140815181FC
:1008400048175907C0F04817590761F4828193810E
:10085000209719F09B838A832BC090930202809388
:10086000010226C02115310519F04217530718F46B
:100870009A01BE01DF01EF010280F381E02DDCCFA0
:100880002115310509F1281B390B2430310590F46D
:1008900012968D919C9113976115710521F0FB01C2
:1008A0009383828304C09093020280930102FD012E
:1008B000329644C0FD01E20FF31F819391932250C1
:1008C00031092D933C933AC02091FF0130910002F1
:1008D000232B41F420910201309103013093000257
:1008E0002093FF0120910001309101012115310574
:1008F00041F42DB73EB74091040150910501241BEE
:10090000350BE091FF01F0910002E217F307A0F42C
:100910002E1B3F0B2817390778F0AC014E5F5F4F55
:100920002417350748F04E0F5F1F50930002409385
:10093000FF018193919302C0E0E0F0E0CF01DF91ED
:10094000CF9108950F931F93CF93DF93009709F4EE
:100950008CC0FC0132971382128200910102109127
:1009600002020115110581F420813181820F931F4C
:100970002091FF01309100022817390779F5F09393
:100980000002E093FF0171C0D80140E050E0AE17D3
:10099000BF0750F412962D913C911397AD0121158C
:1009A000310509F1D901F3CF9D01DA0133832283A7
:1009B00060817181860F971F8217930769F4EC019C
:1009C00028813981260F371F2E5F3F4F31832083C7
:1009D0008A819B8193838283452B29F4F0930202C1
:1009E000E093010242C01396FC93EE931297ED013F
:1009F000499159919E01240F351FE217F30771F4B5
:100A000080819181840F951F029611969C938E93FD
:100A10008281938113969C938E931297E0E0F0E08D
:100A2000D80112968D919C911397009719F0F801B7
:100A30008C01F6CF8D919C9198012E5F3F4F820FD4
:100A4000931F2091FF01309100022817390769F4A4
:100A5000309729F4109202021092010202C0138210
:100A60001282109300020093FF01DF91CF911F913A
:100A70000F91089581E090E0F8940C943F0510E008
:100A8000CDE5D0E004C0FE010E9407042196CE35DA
:080A9000D107C9F7F894FFCF6C
:100A980000000302800000000000A2010B013A01DF
:100AA800E9016B0149015D0100000000880017029F
:00000001FF
